:020000040000FA
:1000000018020020C1000000750400006504000013
:10001000FFFFFFFFFFFFFFFFFFFFFFFFFFFFFFFFF0
:10002000FFFFFFFFFFFFFFFFFFFFFFFFD9050000FE
:10003000FFFFFFFFFFFFFFFFC10500003D060000BF
:1000400003010000030100000301000003010000A0
:100050000301000003010000030100000301000090
:1000600003010000FFFFFFFF030100000301000088
:10007000030100000301000003010000FFFFFFFF78
:10008000FFFFFFFF03010000030100000301000068
:1000900003010000030100000301000075080000D7
:1000A0009D0800000301000003010000030100009F
:1000B0000301000003010000030100000301000030
:1000C0001048804710488047104800471048016991
:1000D000002910D1416900290DD1816900290AD177
:1000E000C169002907D1BFF34F8F0A490A48C86088
:1000F000BFF34F8FFEE77047FEE7FEE7FEE7FEE740
:10010000FEE7FEE7CD000000410600001D010000F3
:100110000003084000ED00E00400FA0504488546AD
:1001200000F01EF800480047950D0000C046C0468C
:100130001802002030B50B46014600202022012481
:1001400009E00D46D5409D4205D31D469540491B0B
:100150002546954040191546521E002DF1DC30BD54
:10016000064C0125064E05E0E36807CC2B430C3C0A
:1001700098471034B442F7D3FFF7D4FF700E000055
:10018000900E0000F0B596460A461349C000461886
:1001900000230025FF2098402C46104216D0002056
:1001A000012199408C461146C1406746394206D02C
:1001B00087000F21B9400D437146B9400C43401CE4
:1001C0000828F0D33068A843204330600833361D38
:1001D000082BDEDDF0BD00002020024070B5184D78
:1001E0000446686B4607760F00F02EF8154920602C
:1001F000330000F08DFC081405070714140E1114C9
:10020000606000E06160296A6068052909D34009DF
:1002100008E00120C003F3E77D200002F0E70020A2
:10022000EEE7C840A060A96A4903490F072902D038
:10023000C840E06070BD0321FFF77CFFF9E70000D4
:100240000080084000127A000C490868C869C20F93
:100250004868400AC007C00F0ED00948002A0BD1D9
:100260008869C00D0007000F00D110208969044A79
:100270004902890F5043C840704700000080084081
:1002800000127A001FB541090A4A89008A18002124
:100290002E2800D10221C006C00E1268032383401D
:1002A0001A40C24054186846FFF798FF029804B0FD
:1002B000E04010BD38800840F0B5084F7C6AFD6A08
:1002C0003E6B84438D439643002B02D004430D4381
:1002D00016437C62FD623E63F0BD00000080084072
:1002E00010B501240720A403002240040123214665
:1002F000FFF7E2FF2146084C0122204600F00EF8ED
:100300000122D103204600F009F8012202212046F3
:1003100000F004F810BD000000400B40002A026805
:1003200001D00A4300E08A430260704770B50122A1
:10033000140321461046FFF725FF01220221032066
:10034000FFF720FF012204210320FFF71BFF184DB8
:10035000002221462846FFF7E1FF164E0022022127
:100360003046FFF7DBFF002204213046FFF7D6FFBF
:1003700000222146284600F055F80022022130468E
:1003800000F050F800220421304600F04BF8012222
:100390002146284600F010F801220221304600F0E4
:1003A0000BF801220421304600F006F870BD000071
:1003B00000200B4000600B40002A426801D00A4335
:1003C00000E08A434260704770B50121090311487B
:1003D00000F03DF8104C114D2070024601218903B8
:1003E000284600F039F80E4E0221304600F02FF872
:1003F000607002460121C903284600F02DF8A915B6
:10040000304600F024F8A07002460221284600F091
:1004100023F870BD00200B401400002000400B406A
:1004200000600B40002A08D0012A09D082688A4364
:100430008260C2688A43C260704782680A43F7E7F5
:10044000C2680A43C26082688A4382607047C0699A
:10045000084000D001207047002A01D04162704757
:1004600081627047024801680029FCD07047000093
:10047000000000207047000010B5134B01281DD06C
:10048000124901200860002211461C46184600F05F
:10049000C9F900220121204600F0C4F900220221FE
:1004A000204600F0BFF900220321204600F0BAF9EF
:1004B00001221102204600F05BF910BD01461846EA
:1004C00000F04CF910BD000000E006400C000020D8
:1004D0007FB5FF2501350024A90101232A462046C6
:1004E000FFF7EAFE042210210020FFF74BFE042252
:1004F00020210220FFF746FE042229460220FFF7B2
:1005000041FE0422D1010220FFF73CFE2949684642
:1005100041802849284E2839018004710294858140
:100520006946304600F086F90121304600F008F9AE
:100530002946304600F00DF9062168464180012524
:10054000057144718471C47104724572448184815F
:1005500004706946304600F013F90122002130464C
:1005600000F0E2F8684605706946304600F008F988
:1005700001221146304600F0D7F80221684601708A
:100580006946304600F0FCF801220221304600F0B6
:10059000CBF80321684601706946304600F0F0F858
:1005A00001220321304600F0BFF804492803086007
:1005B0007FBD0000E703000000E0064000E100E02E
:1005C000704700000349C2B20A600A69D205FCD52F
:1005D00070470000000004407047000004220449F6
:1005E0000428086902D09043086170471043FBE774
:1005F00000E000E00749002806D00128086906D07D
:10060000400840000861704700208861704701225F
:100610001043F7E700E000E00449022200280869DF
:1006200001D0104300E090430861704700E000E013
:10063000014948617047000000E000E07047000099
:10064000F0B534491020C8603349012008603348B0
:10065000016B40242143016331498A68272AFCD178
:10066000416A032292029143416241680122D2020F
:10067000114341608168C908C907FBD04168C908B6
:10068000C900C91C4160416B4907490F0329FAD1D0
:10069000244B1968C908C900491C19600025056266
:1006A00041685E15B143416001689F15394301609F
:1006B00041681A151143416081688908C907FBD058
:1006C000016BA14301630168B9430160032109067D
:1006D000816141683143416081684908C907FBD0A5
:1006E0001968C908C900891C196005624168C908F0
:1006F000C900491C4160416B4907490F0129FAD1E2
:100700001868102108431860186809020843186027
:10071000F0BD0000008108400083084000800840D0
:1007200000A106400002084089000818102140304E
:10073000002A026801D00A4300E08A430260704741
:1007400002220029016901D0114300E091430161B7
:100750007047C943C167BFF34F8F704700290169D4
:1007600002D00122114301E04908490001617047AC
:10077000002A426F01D00A4300E08A434267704773
:10078000F0B50C78A200121815461346A032903529
:10079000944662064033AE46120E03249440204D28
:1007A000E443A84202D001249440E4431C4E056D6A
:1007B00025400565456D2540B0428E7902D1CF793F
:1007C0007F003E4396402E434665154FB84208D100
:1007D000C66E4D7A26400C7A6D002C43944034430B
:1007E000C4661C68FF250835AC431C601C684D8836
:1007F0002C431C604C8973461C608C8963461C60CA
:10080000B84206D10B79497949000B439340016DF9
:1008100002E0036D097991400B430365F0BD0000D0
:1008200000C0024089000818903002607047803094
:100830008160704710B502460B88803293604B8808
:100840005360036803242404A34303600368012462
:100850002406A343036003688C6823430360044BAE
:10086000984201D10B79D3608989816710BD00005E
:1008700000C0024010B520214C06204600F09EF832
:10088000002806D0204600F0E9F8C1B2204600F06A
:1008900023F92021204600F01DF810BD10B5094CA9
:1008A0002021204600F08AF8002806D0204600F0DB
:1008B000D5F8C1B204A000F01BF92021204600F0B9
:1008C00009F810BD0000044064617461203D2025DA
:1008D000630A000002690A4002617047FEB5012602
:1008E000B6030024B70021214902012322463846DD
:1008F000FFF7E2FC4121B5110902012322463846E7
:10090000FFF7DAFCEF01002239462948FFF78AFD9C
:10091000002208212648FFF785FD062231460020E7
:10092000FFF730FC062239460020FFF72BFC062299
:1009300004210020FFF726FC062208210020FFF7F3
:1009400021FCE1204002009068468580C48004813B
:100950004481184C6946204600F036F82503694664
:10096000284600F031F81449A001086040100860E2
:1009700001221146204600F069F80122114628465E
:1009800000F064F801220021204600F09BF80122CB
:100990001146204600F096F801220021284600F07A
:1009A00091F801221146284600F08CF8FEBD0000A7
:1009B00000000B400000044000E100E00069084036
:1009C00000D001207047000070B504460D46C8886D
:1009D0008988626808432989184B1A4011430843E3
:1009E00069890843606001208007844206D118208D
:1009F000FFF748FC2968FFF79DFB606210488442BE
:100A000006D11A20FFF73EFC2968FFF793FB6062CE
:100A10000C48844206D11C20FFF734FC2968FFF7FC
:100A200089FB60620848844206D11E20FFF72AFC39
:100A30002968FFF77FFB606270BD0000FCE0FFFFEC
:100A4000000004400010004000100440002AC2686A
:100A500001D00A4300E08A43C2607047006880B258
:100A6000704701607047F8B5002401270D4606461F
:100A7000BF070BE0FF2101313846FFF79FFF002839
:100A8000F8D0315D3846FFF7ECFF641CAC42F1D37F
:100A9000F8BD0000F8B50D4606460024084F0BE0EF
:100AA000FF2101313846FFF789FF0028F8D0315D7A
:100AB0003846FFF7D6FF641CAC42F1D3F8BD000006
:100AC0000000044010238B404168002A01D01943E4
:100AD00000E099434160704710B50446FFF7C1FF3D
:100AE00080212046FFF76AFF0028F9D010BD0000E2
:100AF0000FB410B503A9044B044A029800F024F87F
:100B000010BC08BC04B018478D0D00000800002080
:100B100030B47446641E2578641CAB4200D21D4676
:100B2000635D5B00E31830BC184702E008C8121F81
:100B300008C1002AFAD170477047002001E001C1C6
:100B4000121F002AFBD17047FFB58DB00F46054636
:100B5000002606E025280AD0109A0F9990476D1CB0
:100B6000761C28780028F5D1304611B0F0BD00245D
:100B70000121674A009400E004436D1C2B7808466D
:100B8000203B98401042F7D128782E2815D1042018
:100B9000044368786D1C2A280AD101CF6D1C00908F
:100BA0000BE000990A225143303940186D1C009027
:100BB0002878014630390929F3D92878692843D0A3
:100BC00006DC0028D0D063280BD0642804D13BE099
:100BD00073280FD075284CD0109A0F999047761C27
:100BE00094E03878694608720020487202A80190A3
:100BF000012003E0386801900020C0433F1D6107D9
:100C00000CD5002400E0641C00998C420FDA844269
:100C1000F9DB0199095D0029F5D108E0002400E025
:100C2000641C8442FCDB0199095D0029F8D1361966
:100C300007E0019801990078491C0191109A0F99D9
:100C40009047641EF5D261E00A20019001CF002890
:100C500002DA40422D2102E0210504D52B216A460B
:100C60001172012103E0E10701D02021F7E70C9187
:100C700004E00A20019001CF00210C910BA90B91F7
:100C800008E00199FFF756FA0A460B993032491EDF
:100C90000B910A700028F4D10B9803A9081A203090
:100CA0000190600701D5009801E0012000900199B2
:100CB000884203DD01460198081A00E00020002464
:100CC000009006E002A8109A005D0F999047641CFE
:100CD000761C0C988442F5DB04E0109A30200F99C2
:100CE0009047761C0099481E00900029F5DC08E02A
:100CF0000B980B990078491C0B91109A0F9990470B
:100D0000761C0199481E01900029F1DC6D1C28E732
:100D10000928010070B57D250446ED0002E0284653
:100D200000F006F82046641EA4B20028F7D170BD7A
:100D300010B504460420C043FFF750FC1148104989
:100D40000068FFF7F7F9FFF773FC0020FFF764FC7A
:100D50000020FFF74FFC0120FFF74CFC00210A4A5E
:100D600003E01369D803FCD5491CA142F9D3012043
:100D7000C043FFF73FFC0020FFF73CFC10BD000024
:100D800000127A000400002000E000E010B5FFF738
:100D900019FC10BD0024FFF7A3FAFFF7C7FAFFF70D
:100DA0009DFDFFF795FB214623A0FFF7A1FE18212B
:100DB0002748FFF76FFE18212548FFF754FE4B2602
:100DC0007D253601234CED00FFF7FEFA3146204623
:100DD000FFF72DFD962203212046FFF723FD9622E3
:100DE00002212046FFF71EFD962201212046FFF733
:100DF00019FD962200212046FFF714FD0120FFF780
:100E00003BFB2846FFF786FF5A2203212046FFF7C7
:100E100009FD5A2202212046FFF704FD5A22012132
:100E20002046FFF7FFFC5A2200212046FFF7FAFC7C
:100E30002846FFF76FFFC7E74C6F6164696E672054
:100E400046696E6973686564212025640D0A000097
:100E5000580E000000E0064048656C6C6F2C54682A
:100E600069732069732020746573742E200D0A0045
:100E7000900E000000000020180000002A0B000067
:100E8000A80E000018000020000200003A0B00002D
:100E900000000000006CDC02000000000000000008
:080EA000000000000101010047
:04000005000000C136
:00000001FF
